:020000040000fa
:080000000002040000000000f2
:020000040000fa
:100008009a0200009a0200009a0200009a02000078
:100018009a0200009a0200009a0200009a02000068
:100028009a0200009a0200009a0200009a02000058
:100038009a0200009a0200009a0200009a02000048
:020000040000fa
:020000040000fa
:100400000f8020000e7f22000e01880000000000f7
:10041000000020000000e000020032000001200087
:10042000200288000c000700a02e20000100200000
:1004300011000700000020000000e0000200320070
:1004400000000200000000009e0202000000000008
:100450000040da000000fe004440a9000000200037
:100460000000e0000300320000002000a00188002e
:100470004440a80000000600910188008000780038
:100480000000eb0015003700e280400032a0b4000d
:100490009101ba00e280400032a0b4009102ba009b
:1004a000e280400032a0b4000002eb00472bde00e7
:1004b000f507b200602ce10004003a000059eb009f
:1004c0008301e900fdff3e00040037006128e100e0
:1004d000010032000082eb00040007001101ba00a5
:1004e0000200e000e8ff3a00000006003159ba00bf
:1004f0008301e9000c0032002159ba008301e900b0
:10050000080032000400e00003003a00e2804000ee
:1005100032a0b400f5ff370011d9ba008301e90019
:10052000faff3a008100e800e180400032a0b40008
:0c053000000006000040da000000fe00a1
:020000040000fa
:10053c000400fa00000f7800110798000080eb000f
:10054c0060198800c022a800c622a90020168000cd
:10055c000000d1006140600000c0ea006140600012
:10056c000080fb006100600000004000221680004b
:10057c00d1ff2f008100610001007000201688005f
:10058c0000402200410f200001000700efff370060
:020000040000fa
:10059c00f03fb1000180b10006003500ee03090008
:1005ac0000000000403fb1000180b100fbff3d00a6
:1005bc001000b000203fb0000200350000800900a0
:0805cc00000000000000060021
:020000040000fa
:0405d4000000000023
:020000040000fa
:04aff800aff90000ad
:020000040000fa
:04affc007f3f000093
:00000001FF
